{
  "contractName": "Counter",
  "abi": [
    {
      "inputs": [
        {
          "internalType": "uint256",
          "name": "countValue",
          "type": "uint256"
        }
      ],
      "name": "increment",
      "outputs": [],
      "stateMutability": "nonpayable",
      "type": "function"
    },
    {
      "inputs": [],
      "name": "count",
      "outputs": [
        {
          "internalType": "uint256",
          "name": "",
          "type": "uint256"
        }
      ],
      "stateMutability": "view",
      "type": "function",
      "constant": true
    }
  ],
  "bytecode": "0x608060405234801561001057600080fd5b50610203806100206000396000f3fe608060405234801561001057600080fd5b5060043610610053576000357c01000000000000000000000000000000000000000000000000000000009004806306661abd146100585780637cf5dab014610076575b600080fd5b610060610092565b60405161006d91906100cf565b60405180910390f35b610090600480360381019061008b919061011b565b61009b565b005b60008054905090565b806000808282546100ac9190610177565b9250508190555050565b6000819050919050565b6100c9816100b6565b82525050565b60006020820190506100e460008301846100c0565b92915050565b600080fd5b6100f8816100b6565b811461010357600080fd5b50565b600081359050610115816100ef565b92915050565b600060208284031215610131576101306100ea565b5b600061013f84828501610106565b91505092915050565b7f4e487b7100000000000000000000000000000000000000000000000000000000600052601160045260246000fd5b6000610182826100b6565b915061018d836100b6565b9250827fffffffffffffffffffffffffffffffffffffffffffffffffffffffffffffffff038211156101c2576101c1610148565b5b82820190509291505056fea264697066735822122060ae797fa9567fe02c6219f581f70ad2463cca8fe9f0e7b93f2be29bc53ade5264736f6c634300080e0033",
  "immutableReferences": {},
  "source": "// SPDX-License-Identifier: GPL-3.0\n\npragma solidity >=0.7.0 <0.9.0;\n\ncontract Counter {\n    uint256 _count;\n\n    function increment(uint256 countValue) public {\n        _count += countValue;\n    }\n\n    function count() public view returns (uint256) {\n        return _count;\n    }\n}\n",
  "sourcePath": "/Users/tsvillain/Desktop/flutter_web3/flutter_dapp/contracts/Counter.sol",
  "compiler": {
    "name": "solc",
    "version": "0.8.14+commit.80d49f37.Emscripten.clang"
  },
  "schemaVersion": "3.4.7",
  "updatedAt": "2022-05-21T19:11:54.159Z",
  "networkType": "ethereum",
  "devdoc": {
    "kind": "dev",
    "methods": {},
    "version": 1
  },
  "userdoc": {
    "kind": "user",
    "methods": {},
    "version": 1
  }
}